{
  "_format": "hh-sol-artifact-1",
  "contractName": "PayMe",
  "sourceName": "contracts/PayMe.sol",
  "abi": [
    {
      "inputs": [],
      "stateMutability": "payable",
      "type": "constructor"
    },
    {
      "anonymous": false,
      "inputs": [
        {
          "indexed": true,
          "internalType": "address",
          "name": "from",
          "type": "address"
        },
        {
          "indexed": false,
          "internalType": "uint256",
          "name": "timestamp",
          "type": "uint256"
        },
        {
          "indexed": false,
          "internalType": "string",
          "name": "message",
          "type": "string"
        },
        {
          "indexed": false,
          "internalType": "string",
          "name": "name",
          "type": "string"
        }
      ],
      "name": "NewPayment",
      "type": "event"
    },
    {
      "anonymous": false,
      "inputs": [
        {
          "indexed": true,
          "internalType": "bytes32",
          "name": "role",
          "type": "bytes32"
        },
        {
          "indexed": true,
          "internalType": "bytes32",
          "name": "previousAdminRole",
          "type": "bytes32"
        },
        {
          "indexed": true,
          "internalType": "bytes32",
          "name": "newAdminRole",
          "type": "bytes32"
        }
      ],
      "name": "RoleAdminChanged",
      "type": "event"
    },
    {
      "anonymous": false,
      "inputs": [
        {
          "indexed": true,
          "internalType": "bytes32",
          "name": "role",
          "type": "bytes32"
        },
        {
          "indexed": true,
          "internalType": "address",
          "name": "account",
          "type": "address"
        },
        {
          "indexed": true,
          "internalType": "address",
          "name": "sender",
          "type": "address"
        }
      ],
      "name": "RoleGranted",
      "type": "event"
    },
    {
      "anonymous": false,
      "inputs": [
        {
          "indexed": true,
          "internalType": "bytes32",
          "name": "role",
          "type": "bytes32"
        },
        {
          "indexed": true,
          "internalType": "address",
          "name": "account",
          "type": "address"
        },
        {
          "indexed": true,
          "internalType": "address",
          "name": "sender",
          "type": "address"
        }
      ],
      "name": "RoleRevoked",
      "type": "event"
    },
    {
      "inputs": [],
      "name": "DEFAULT_ADMIN_ROLE",
      "outputs": [
        {
          "internalType": "bytes32",
          "name": "",
          "type": "bytes32"
        }
      ],
      "stateMutability": "view",
      "type": "function"
    },
    {
      "inputs": [],
      "name": "getAllPayments",
      "outputs": [
        {
          "components": [
            {
              "internalType": "address",
              "name": "payer",
              "type": "address"
            },
            {
              "internalType": "string",
              "name": "message",
              "type": "string"
            },
            {
              "internalType": "string",
              "name": "name",
              "type": "string"
            },
            {
              "internalType": "uint256",
              "name": "timestamp",
              "type": "uint256"
            }
          ],
          "internalType": "struct PayMe.Payment[]",
          "name": "",
          "type": "tuple[]"
        }
      ],
      "stateMutability": "view",
      "type": "function"
    },
    {
      "inputs": [
        {
          "internalType": "bytes32",
          "name": "role",
          "type": "bytes32"
        }
      ],
      "name": "getRoleAdmin",
      "outputs": [
        {
          "internalType": "bytes32",
          "name": "",
          "type": "bytes32"
        }
      ],
      "stateMutability": "view",
      "type": "function"
    },
    {
      "inputs": [],
      "name": "getTotalPayments",
      "outputs": [
        {
          "internalType": "uint256",
          "name": "",
          "type": "uint256"
        }
      ],
      "stateMutability": "view",
      "type": "function"
    },
    {
      "inputs": [
        {
          "internalType": "bytes32",
          "name": "role",
          "type": "bytes32"
        },
        {
          "internalType": "address",
          "name": "account",
          "type": "address"
        }
      ],
      "name": "grantRole",
      "outputs": [],
      "stateMutability": "nonpayable",
      "type": "function"
    },
    {
      "inputs": [
        {
          "internalType": "bytes32",
          "name": "role",
          "type": "bytes32"
        },
        {
          "internalType": "address",
          "name": "account",
          "type": "address"
        }
      ],
      "name": "hasRole",
      "outputs": [
        {
          "internalType": "bool",
          "name": "",
          "type": "bool"
        }
      ],
      "stateMutability": "view",
      "type": "function"
    },
    {
      "inputs": [],
      "name": "owner",
      "outputs": [
        {
          "internalType": "address payable",
          "name": "",
          "type": "address"
        }
      ],
      "stateMutability": "view",
      "type": "function"
    },
    {
      "inputs": [
        {
          "internalType": "string",
          "name": "_message",
          "type": "string"
        },
        {
          "internalType": "string",
          "name": "_name",
          "type": "string"
        },
        {
          "internalType": "uint256",
          "name": "_payAmount",
          "type": "uint256"
        }
      ],
      "name": "payMe",
      "outputs": [],
      "stateMutability": "payable",
      "type": "function"
    },
    {
      "inputs": [
        {
          "internalType": "bytes32",
          "name": "role",
          "type": "bytes32"
        },
        {
          "internalType": "address",
          "name": "account",
          "type": "address"
        }
      ],
      "name": "renounceRole",
      "outputs": [],
      "stateMutability": "nonpayable",
      "type": "function"
    },
    {
      "inputs": [
        {
          "internalType": "bytes32",
          "name": "role",
          "type": "bytes32"
        },
        {
          "internalType": "address",
          "name": "account",
          "type": "address"
        }
      ],
      "name": "revokeRole",
      "outputs": [],
      "stateMutability": "nonpayable",
      "type": "function"
    },
    {
      "inputs": [
        {
          "internalType": "bytes4",
          "name": "interfaceId",
          "type": "bytes4"
        }
      ],
      "name": "supportsInterface",
      "outputs": [
        {
          "internalType": "bool",
          "name": "",
          "type": "bool"
        }
      ],
      "stateMutability": "view",
      "type": "function"
    }
  ],
  "bytecode": "0x6080604052600280546001600160a01b031916331790556110f9806100256000396000f3fe60806040526004361061009c5760003560e01c80638da5cb5b116100645780638da5cb5b1461016b57806391d14854146101a3578063a217fddf146101c3578063b6c5aed4146101d8578063d547741f146101eb578063f8defa3c1461020b57600080fd5b806301ffc9a7146100a1578063248a9ca3146100d65780632f2ff15d1461011457806336568abe14610136578063708f29a614610156575b600080fd5b3480156100ad57600080fd5b506100c16100bc366004610b5d565b61022d565b60405190151581526020015b60405180910390f35b3480156100e257600080fd5b506101066100f1366004610b87565b60009081526020819052604090206001015490565b6040519081526020016100cd565b34801561012057600080fd5b5061013461012f366004610ba0565b610264565b005b34801561014257600080fd5b50610134610151366004610ba0565b61028e565b34801561016257600080fd5b50610106610311565b34801561017757600080fd5b5060025461018b906001600160a01b031681565b6040516001600160a01b0390911681526020016100cd565b3480156101af57600080fd5b506100c16101be366004610ba0565b61033e565b3480156101cf57600080fd5b50610106600081565b6101346101e6366004610c7f565b610367565b3480156101f757600080fd5b50610134610206366004610ba0565b6105dd565b34801561021757600080fd5b50610220610602565b6040516100cd9190610d3c565b60006001600160e01b03198216637965db0b60e01b148061025e57506301ffc9a760e01b6001600160e01b03198316145b92915050565b60008281526020819052604090206001015461027f816107a5565b61028983836107b2565b505050565b6001600160a01b03811633146103035760405162461bcd60e51b815260206004820152602f60248201527f416363657373436f6e74726f6c3a2063616e206f6e6c792072656e6f756e636560448201526e103937b632b9903337b91039b2b63360891b60648201526084015b60405180910390fd5b61030d8282610836565b5050565b60006103376040518060600160405280602281526020016110a26022913960015461089b565b5060015490565b6000918252602082815260408084206001600160a01b0393909316845291905290205460ff1690565b66038d7ea4c68000808211156103cf5760405162461bcd60e51b815260206004820152602760248201527f486f6c64206f6e2c20746861742773206e6f7420656e6f7567682065746865726044820152664d6f6e6965732160c81b60648201526084016102fa565b60018060008282546103e19190610df9565b925050819055506104276040518060400160405280602081526020017f257320686173206a7573742073656e7420757320736f6d65206d6f6e69657321815250336108e0565b60408051608081018252338152602081018681529181018590524260608201526003805460018101825560009190915281517fc2575a0e9e593c00f959f8c92f12db2869c3395a3b0502d05e2516446f71f85b600490920291820180546001600160a01b0319166001600160a01b0390921691909117815592519192917fc2575a0e9e593c00f959f8c92f12db2869c3395a3b0502d05e2516446f71f85c909101906104d39082610e94565b50604082015160028201906104e89082610e94565b50606091909101516003909101556002546040516000916001600160a01b03169084908381818185875af1925050503d8060008114610543576040519150601f19603f3d011682016040523d82523d6000602084013e610548565b606091505b50509050806105915760405162461bcd60e51b81526020600482015260156024820152744661696c656420746f2073656e64206d6f6e69657360581b60448201526064016102fa565b336001600160a01b03167fb6c676cae09c3308c1e09d97f798d5df9e1b7f7e170157cfe5871bef523fef694287876040516105ce93929190610f54565b60405180910390a25050505050565b6000828152602081905260409020600101546105f8816107a5565b6102898383610836565b60606003805480602002602001604051908101604052809291908181526020016000905b8282101561079c57600084815260209081902060408051608081019091526004850290910180546001600160a01b03168252600181018054929391929184019161066f90610e0c565b80601f016020809104026020016040519081016040528092919081815260200182805461069b90610e0c565b80156106e85780601f106106bd576101008083540402835291602001916106e8565b820191906000526020600020905b8154815290600101906020018083116106cb57829003601f168201915b5050505050815260200160028201805461070190610e0c565b80601f016020809104026020016040519081016040528092919081815260200182805461072d90610e0c565b801561077a5780601f1061074f5761010080835404028352916020019161077a565b820191906000526020600020905b81548152906001019060200180831161075d57829003601f168201915b5050505050815260200160038201548152505081526020019060010190610626565b50505050905090565b6107af8133610925565b50565b6107bc828261033e565b61030d576000828152602081815260408083206001600160a01b03851684529091529020805460ff191660011790556107f23390565b6001600160a01b0316816001600160a01b0316837f2f8788117e7eff1d82e926ec794901d17c78024a50270940304540a733656f0d60405160405180910390a45050565b610840828261033e565b1561030d576000828152602081815260408083206001600160a01b0385168085529252808320805460ff1916905551339285917ff6391f5c32d9c69d2a47ea670b442974b53935d1edc7fd64eb21e047a839171b9190a45050565b61030d82826040516024016108b1929190610f89565b60408051601f198184030181529190526020810180516001600160e01b0316632d839cb360e21b17905261097e565b61030d82826040516024016108f6929190610fab565b60408051601f198184030181529190526020810180516001600160e01b031663319af33360e01b17905261097e565b61092f828261033e565b61030d5761093c81610987565b610947836020610999565b604051602001610958929190610fd5565b60408051601f198184030181529082905262461bcd60e51b82526102fa9160040161104a565b6107af81610b3c565b606061025e6001600160a01b03831660145b606060006109a883600261105d565b6109b3906002610df9565b67ffffffffffffffff8111156109cb576109cb610bdc565b6040519080825280601f01601f1916602001820160405280156109f5576020820181803683370190505b509050600360fc1b81600081518110610a1057610a10611074565b60200101906001600160f81b031916908160001a905350600f60fb1b81600181518110610a3f57610a3f611074565b60200101906001600160f81b031916908160001a9053506000610a6384600261105d565b610a6e906001610df9565b90505b6001811115610ae6576f181899199a1a9b1b9c1cb0b131b232b360811b85600f1660108110610aa257610aa2611074565b1a60f81b828281518110610ab857610ab8611074565b60200101906001600160f81b031916908160001a90535060049490941c93610adf8161108a565b9050610a71565b508315610b355760405162461bcd60e51b815260206004820181905260248201527f537472696e67733a20686578206c656e67746820696e73756666696369656e7460448201526064016102fa565b9392505050565b60006a636f6e736f6c652e6c6f679050600080835160208501845afa505050565b600060208284031215610b6f57600080fd5b81356001600160e01b031981168114610b3557600080fd5b600060208284031215610b9957600080fd5b5035919050565b60008060408385031215610bb357600080fd5b8235915060208301356001600160a01b0381168114610bd157600080fd5b809150509250929050565b634e487b7160e01b600052604160045260246000fd5b600082601f830112610c0357600080fd5b813567ffffffffffffffff80821115610c1e57610c1e610bdc565b604051601f8301601f19908116603f01168101908282118183101715610c4657610c46610bdc565b81604052838152866020858801011115610c5f57600080fd5b836020870160208301376000602085830101528094505050505092915050565b600080600060608486031215610c9457600080fd5b833567ffffffffffffffff80821115610cac57600080fd5b610cb887838801610bf2565b94506020860135915080821115610cce57600080fd5b50610cdb86828701610bf2565b925050604084013590509250925092565b60005b83811015610d07578181015183820152602001610cef565b50506000910152565b60008151808452610d28816020860160208601610cec565b601f01601f19169290920160200192915050565b60006020808301818452808551808352604092508286019150828160051b87010184880160005b83811015610dd557888303603f19018552815180516001600160a01b0316845287810151608089860181905290610d9c82870182610d10565b9150508782015185820389870152610db48282610d10565b60609384015196909301959095525094870194925090860190600101610d63565b509098975050505050505050565b634e487b7160e01b600052601160045260246000fd5b8082018082111561025e5761025e610de3565b600181811c90821680610e2057607f821691505b602082108103610e4057634e487b7160e01b600052602260045260246000fd5b50919050565b601f82111561028957600081815260208120601f850160051c81016020861015610e6d5750805b601f850160051c820191505b81811015610e8c57828155600101610e79565b505050505050565b815167ffffffffffffffff811115610eae57610eae610bdc565b610ec281610ebc8454610e0c565b84610e46565b602080601f831160018114610ef75760008415610edf5750858301515b600019600386901b1c1916600185901b178555610e8c565b600085815260208120601f198616915b82811015610f2657888601518255948401946001909101908401610f07565b5085821015610f445787850151600019600388901b60f8161c191681555b5050505050600190811b01905550565b838152606060208201526000610f6d6060830185610d10565b8281036040840152610f7f8185610d10565b9695505050505050565b604081526000610f9c6040830185610d10565b90508260208301529392505050565b604081526000610fbe6040830185610d10565b905060018060a01b03831660208301529392505050565b7f416363657373436f6e74726f6c3a206163636f756e742000000000000000000081526000835161100d816017850160208801610cec565b7001034b99036b4b9b9b4b733903937b6329607d1b601791840191820152835161103e816028840160208801610cec565b01602801949350505050565b602081526000610b356020830184610d10565b808202811582820484141761025e5761025e610de3565b634e487b7160e01b600052603260045260246000fd5b60008161109957611099610de3565b50600019019056fe5765206861766520256420746f74616c207061796d656e7473207265636569766564a2646970667358221220afc4ac8159336d88a9066257ed22da3997c56b5799016824da23fb2820d5dfd364736f6c63430008130033",
  "linkReferences": {},
  "deployedLinkReferences": {}
}